{
  "contractName": "SolnSquareVerifier",
  "abi": [
    {
      "constant": true,
      "inputs": [
        {
          "name": "interfaceId",
          "type": "bytes4"
        }
      ],
      "name": "supportsInterface",
      "outputs": [
        {
          "name": "",
          "type": "bool"
        }
      ],
      "payable": false,
      "stateMutability": "view",
      "type": "function"
    },
    {
      "constant": true,
      "inputs": [
        {
          "name": "tokenId",
          "type": "uint256"
        }
      ],
      "name": "getApproved",
      "outputs": [
        {
          "name": "",
          "type": "address"
        }
      ],
      "payable": false,
      "stateMutability": "view",
      "type": "function"
    },
    {
      "constant": false,
      "inputs": [
        {
          "name": "to",
          "type": "address"
        },
        {
          "name": "tokenId",
          "type": "uint256"
        }
      ],
      "name": "approve",
      "outputs": [],
      "payable": false,
      "stateMutability": "nonpayable",
      "type": "function"
    },
    {
      "constant": true,
      "inputs": [],
      "name": "getSymbol",
      "outputs": [
        {
          "name": "",
          "type": "string"
        }
      ],
      "payable": false,
      "stateMutability": "view",
      "type": "function"
    },
    {
      "constant": false,
      "inputs": [
        {
          "name": "paused",
          "type": "bool"
        }
      ],
      "name": "setPaused",
      "outputs": [],
      "payable": false,
      "stateMutability": "nonpayable",
      "type": "function"
    },
    {
      "constant": true,
      "inputs": [],
      "name": "getName",
      "outputs": [
        {
          "name": "",
          "type": "string"
        }
      ],
      "payable": false,
      "stateMutability": "view",
      "type": "function"
    },
    {
      "constant": true,
      "inputs": [],
      "name": "totalSupply",
      "outputs": [
        {
          "name": "",
          "type": "uint256"
        }
      ],
      "payable": false,
      "stateMutability": "view",
      "type": "function"
    },
    {
      "constant": false,
      "inputs": [
        {
          "name": "from",
          "type": "address"
        },
        {
          "name": "to",
          "type": "address"
        },
        {
          "name": "tokenId",
          "type": "uint256"
        }
      ],
      "name": "transferFrom",
      "outputs": [],
      "payable": false,
      "stateMutability": "nonpayable",
      "type": "function"
    },
    {
      "constant": false,
      "inputs": [
        {
          "name": "_myid",
          "type": "bytes32"
        },
        {
          "name": "_result",
          "type": "string"
        }
      ],
      "name": "__callback",
      "outputs": [],
      "payable": false,
      "stateMutability": "nonpayable",
      "type": "function"
    },
    {
      "constant": true,
      "inputs": [
        {
          "name": "owner",
          "type": "address"
        },
        {
          "name": "index",
          "type": "uint256"
        }
      ],
      "name": "tokenOfOwnerByIndex",
      "outputs": [
        {
          "name": "",
          "type": "uint256"
        }
      ],
      "payable": false,
      "stateMutability": "view",
      "type": "function"
    },
    {
      "constant": false,
      "inputs": [
        {
          "name": "_myid",
          "type": "bytes32"
        },
        {
          "name": "_result",
          "type": "string"
        },
        {
          "name": "_proof",
          "type": "bytes"
        }
      ],
      "name": "__callback",
      "outputs": [],
      "payable": false,
      "stateMutability": "nonpayable",
      "type": "function"
    },
    {
      "constant": false,
      "inputs": [
        {
          "name": "from",
          "type": "address"
        },
        {
          "name": "to",
          "type": "address"
        },
        {
          "name": "tokenId",
          "type": "uint256"
        }
      ],
      "name": "safeTransferFrom",
      "outputs": [],
      "payable": false,
      "stateMutability": "nonpayable",
      "type": "function"
    },
    {
      "constant": true,
      "inputs": [],
      "name": "getContractOwner",
      "outputs": [
        {
          "name": "",
          "type": "address"
        }
      ],
      "payable": false,
      "stateMutability": "view",
      "type": "function"
    },
    {
      "constant": true,
      "inputs": [
        {
          "name": "index",
          "type": "uint256"
        }
      ],
      "name": "tokenByIndex",
      "outputs": [
        {
          "name": "",
          "type": "uint256"
        }
      ],
      "payable": false,
      "stateMutability": "view",
      "type": "function"
    },
    {
      "constant": false,
      "inputs": [
        {
          "name": "a",
          "type": "uint256[2]"
        },
        {
          "name": "b",
          "type": "uint256[2][2]"
        },
        {
          "name": "c",
          "type": "uint256[2]"
        },
        {
          "name": "input",
          "type": "uint256[2]"
        }
      ],
      "name": "verifyTx",
      "outputs": [
        {
          "name": "r",
          "type": "bool"
        }
      ],
      "payable": false,
      "stateMutability": "nonpayable",
      "type": "function"
    },
    {
      "constant": true,
      "inputs": [
        {
          "name": "tokenId",
          "type": "uint256"
        }
      ],
      "name": "ownerOf",
      "outputs": [
        {
          "name": "",
          "type": "address"
        }
      ],
      "payable": false,
      "stateMutability": "view",
      "type": "function"
    },
    {
      "constant": true,
      "inputs": [
        {
          "name": "owner",
          "type": "address"
        }
      ],
      "name": "balanceOf",
      "outputs": [
        {
          "name": "",
          "type": "uint256"
        }
      ],
      "payable": false,
      "stateMutability": "view",
      "type": "function"
    },
    {
      "constant": false,
      "inputs": [
        {
          "name": "to",
          "type": "address"
        },
        {
          "name": "approved",
          "type": "bool"
        }
      ],
      "name": "setApprovalForAll",
      "outputs": [],
      "payable": false,
      "stateMutability": "nonpayable",
      "type": "function"
    },
    {
      "constant": false,
      "inputs": [
        {
          "name": "from",
          "type": "address"
        },
        {
          "name": "to",
          "type": "address"
        },
        {
          "name": "tokenId",
          "type": "uint256"
        },
        {
          "name": "_data",
          "type": "bytes"
        }
      ],
      "name": "safeTransferFrom",
      "outputs": [],
      "payable": false,
      "stateMutability": "nonpayable",
      "type": "function"
    },
    {
      "constant": true,
      "inputs": [],
      "name": "getBaseTokenURI",
      "outputs": [
        {
          "name": "",
          "type": "string"
        }
      ],
      "payable": false,
      "stateMutability": "view",
      "type": "function"
    },
    {
      "constant": true,
      "inputs": [
        {
          "name": "tokenId",
          "type": "uint256"
        }
      ],
      "name": "tokenURI",
      "outputs": [
        {
          "name": "",
          "type": "string"
        }
      ],
      "payable": false,
      "stateMutability": "view",
      "type": "function"
    },
    {
      "constant": true,
      "inputs": [
        {
          "name": "owner",
          "type": "address"
        },
        {
          "name": "operator",
          "type": "address"
        }
      ],
      "name": "isApprovedForAll",
      "outputs": [
        {
          "name": "",
          "type": "bool"
        }
      ],
      "payable": false,
      "stateMutability": "view",
      "type": "function"
    },
    {
      "constant": false,
      "inputs": [
        {
          "name": "newOwner",
          "type": "address"
        }
      ],
      "name": "transferOwnership",
      "outputs": [],
      "payable": false,
      "stateMutability": "nonpayable",
      "type": "function"
    },
    {
      "anonymous": false,
      "inputs": [
        {
          "indexed": false,
          "name": "index",
          "type": "uint256"
        },
        {
          "indexed": false,
          "name": "addr",
          "type": "address"
        }
      ],
      "name": "SolutionAdded",
      "type": "event"
    },
    {
      "anonymous": false,
      "inputs": [
        {
          "indexed": true,
          "name": "from",
          "type": "address"
        },
        {
          "indexed": true,
          "name": "to",
          "type": "address"
        },
        {
          "indexed": true,
          "name": "tokenId",
          "type": "uint256"
        }
      ],
      "name": "Transfer",
      "type": "event"
    },
    {
      "anonymous": false,
      "inputs": [
        {
          "indexed": true,
          "name": "owner",
          "type": "address"
        },
        {
          "indexed": true,
          "name": "approved",
          "type": "address"
        },
        {
          "indexed": true,
          "name": "tokenId",
          "type": "uint256"
        }
      ],
      "name": "Approval",
      "type": "event"
    },
    {
      "anonymous": false,
      "inputs": [
        {
          "indexed": true,
          "name": "owner",
          "type": "address"
        },
        {
          "indexed": true,
          "name": "operator",
          "type": "address"
        },
        {
          "indexed": false,
          "name": "approved",
          "type": "bool"
        }
      ],
      "name": "ApprovalForAll",
      "type": "event"
    },
    {
      "anonymous": false,
      "inputs": [
        {
          "indexed": false,
          "name": "addr",
          "type": "address"
        }
      ],
      "name": "Paused",
      "type": "event"
    },
    {
      "anonymous": false,
      "inputs": [
        {
          "indexed": false,
          "name": "addr",
          "type": "address"
        }
      ],
      "name": "Unpaused",
      "type": "event"
    },
    {
      "anonymous": false,
      "inputs": [
        {
          "indexed": false,
          "name": "oldOwner",
          "type": "address"
        },
        {
          "indexed": false,
          "name": "newOwner",
          "type": "address"
        }
      ],
      "name": "ownershipTransferred",
      "type": "event"
    },
    {
      "anonymous": false,
      "inputs": [
        {
          "indexed": false,
          "name": "s",
          "type": "string"
        }
      ],
      "name": "Verified",
      "type": "event"
    },
    {
      "constant": false,
      "inputs": [
        {
          "name": "_addr",
          "type": "address"
        },
        {
          "name": "_index",
          "type": "uint256"
        },
        {
          "name": "a",
          "type": "uint256[2]"
        },
        {
          "name": "b",
          "type": "uint256[2][2]"
        },
        {
          "name": "c",
          "type": "uint256[2]"
        },
        {
          "name": "input",
          "type": "uint256[2]"
        }
      ],
      "name": "addSolution",
      "outputs": [],
      "payable": false,
      "stateMutability": "nonpayable",
      "type": "function"
    },
    {
      "constant": false,
      "inputs": [
        {
          "name": "to",
          "type": "address"
        },
        {
          "name": "tokenId",
          "type": "uint256"
        }
      ],
      "name": "mint",
      "outputs": [
        {
          "name": "",
          "type": "bool"
        }
      ],
      "payable": false,
      "stateMutability": "nonpayable",
      "type": "function"
    },
    {
      "constant": false,
      "inputs": [
        {
          "name": "to",
          "type": "address"
        },
        {
          "name": "tokenId",
          "type": "uint256"
        },
        {
          "name": "a",
          "type": "uint256[2]"
        },
        {
          "name": "b",
          "type": "uint256[2][2]"
        },
        {
          "name": "c",
          "type": "uint256[2]"
        },
        {
          "name": "input",
          "type": "uint256[2]"
        }
      ],
      "name": "mint",
      "outputs": [
        {
          "name": "",
          "type": "bool"
        }
      ],
      "payable": false,
      "stateMutability": "nonpayable",
      "type": "function"
    }
  ],
  "bytecode": "0x60806040526040805190810160405280601581526020017f437573746f6d697a6564546f6b656e45524337323100000000000000000000008152506040805190810160405280600381526020017f4d414e0000000000000000000000000000000000000000000000000000000000815250606060405190810160405280603f815260200162004abe603f9139336000806101000a81548173ffffffffffffffffffffffffffffffffffffffff021916908373ffffffffffffffffffffffffffffffffffffffff16021790555060008060146101000a81548160ff021916908315150217905550620001226301ffc9a77c0100000000000000000000000000000000000000000000000000000000026200022d640100000000026401000000009004565b6200015f6380ac58cd7c0100000000000000000000000000000000000000000000000000000000026200022d640100000000026401000000009004565b6200019c63780e9d637c0100000000000000000000000000000000000000000000000000000000026200022d640100000000026401000000009004565b82600f9080519060200190620001b4929190620002eb565b508160109080519060200190620001cd929190620002eb565b508060119080519060200190620001e6929190620002eb565b5062000224635b5e139f7c0100000000000000000000000000000000000000000000000000000000026200022d640100000000026401000000009004565b5050506200039a565b63ffffffff7c010000000000000000000000000000000000000000000000000000000002817bffffffffffffffffffffffffffffffffffffffffffffffffffffffff1916141515156200027f57600080fd5b6001806000837bffffffffffffffffffffffffffffffffffffffffffffffffffffffff19167bffffffffffffffffffffffffffffffffffffffffffffffffffffffff1916815260200190815260200160002060006101000a81548160ff02191690831515021790555050565b828054600181600116156101000203166002900490600052602060002090601f016020900481019282601f106200032e57805160ff19168380011785556200035f565b828001600101855582156200035f579182015b828111156200035e57825182559160200191906001019062000341565b5b5090506200036e919062000372565b5090565b6200039791905b808211156200039357600081600090555060010162000379565b5090565b90565b61471480620003aa6000396000f3fe608060405234801561001057600080fd5b50600436106101ab576000357c01000000000000000000000000000000000000000000000000000000009004806342842e0e116100fb578063a22cb465116100b4578063c87b56dd1161008e578063c87b56dd14610e18578063e985e9c514610ebf578063f2fde38b14610f3b578063fec6cfb914610f7f576101ab565b8063a22cb46514610c40578063b88d4fde14610c90578063bdc32be014610d95576101ab565b806342842e0e14610907578063442890d5146109755780634f6ccce7146109bf578063621e9ec014610a015780636352211e14610b7a57806370a0823114610be8576101ab565b806318160ddd116101685780632f745c59116101425780632f745c591461055857806338bbfa50146105ba5780633eec14da1461071657806340c10f19146108a1576101ab565b806318160ddd1461040757806323b872dd1461042557806327dc297e14610493576101ab565b806301ffc9a7146101b0578063081812fc14610215578063095ea7b31461028357806315070401146102d157806316c38b3c1461035457806317d7de7c14610384575b600080fd5b6101fb600480360360208110156101c657600080fd5b8101908080357bffffffffffffffffffffffffffffffffffffffffffffffffffffffff19169060200190929190505050611122565b604051808215151515815260200191505060405180910390f35b6102416004803603602081101561022b57600080fd5b810190808035906020019092919050505061118a565b604051808273ffffffffffffffffffffffffffffffffffffffff1673ffffffffffffffffffffffffffffffffffffffff16815260200191505060405180910390f35b6102cf6004803603604081101561029957600080fd5b81019080803573ffffffffffffffffffffffffffffffffffffffff169060200190929190803590602001909291905050506111c7565b005b6102d9611428565b6040518080602001828103825283818151815260200191508051906020019080838360005b838110156103195780820151818401526020810190506102fe565b50505050905090810190601f1680156103465780820380516001836020036101000a031916815260200191505b509250505060405180910390f35b6103826004803603602081101561036a57600080fd5b810190808035151590602001909291905050506114ca565b005b61038c6116ab565b6040518080602001828103825283818151815260200191508051906020019080838360005b838110156103cc5780820151818401526020810190506103b1565b50505050905090810190601f1680156103f95780820380516001836020036101000a031916815260200191505b509250505060405180910390f35b61040f61174d565b6040518082815260200191505060405180910390f35b6104916004803603606081101561043b57600080fd5b81019080803573ffffffffffffffffffffffffffffffffffffffff169060200190929190803573ffffffffffffffffffffffffffffffffffffffff1690602001909291908035906020019092919050505061175a565b005b610556600480360360408110156104a957600080fd5b8101908080359060200190929190803590602001906401000000008111156104d057600080fd5b8201836020820111156104e257600080fd5b8035906020019184600183028401116401000000008311171561050457600080fd5b91908080601f016020809104026020016040519081016040528093929190818152602001838380828437600081840152601f19601f82011690508083019250505050505050919291929050505061177f565b005b6105a46004803603604081101561056e57600080fd5b81019080803573ffffffffffffffffffffffffffffffffffffffff169060200190929190803590602001909291905050506117c2565b6040518082815260200191505060405180910390f35b610714600480360360608110156105d057600080fd5b8101908080359060200190929190803590602001906401000000008111156105f757600080fd5b82018360208201111561060957600080fd5b8035906020019184600183028401116401000000008311171561062b57600080fd5b91908080601f016020809104026020016040519081016040528093929190818152602001838380828437600081840152601f19601f8201169050808301925050505050505091929192908035906020019064010000000081111561068e57600080fd5b8201836020820111156106a057600080fd5b803590602001918460018302840111640100000000831117156106c257600080fd5b91908080601f016020809104026020016040519081016040528093929190818152602001838380828437600081840152601f19601f820116905080830192505050505050509192919290505050611839565b005b61089f600480360361018081101561072d57600080fd5b81019080803573ffffffffffffffffffffffffffffffffffffffff1690602001909291908035906020019092919080604001906002806020026040519081016040528092919082600260200280828437600081840152601f19601f82011690508083019250505050505091929192908060800190600280602002604051908101604052809291906000905b8282101561080c578382604002016002806020026040519081016040528092919082600260200280828437600081840152601f19601f820116905080830192505050505050815260200190600101906107b8565b50505050919291929080604001906002806020026040519081016040528092919082600260200280828437600081840152601f19601f820116905080830192505050505050919291929080604001906002806020026040519081016040528092919082600260200280828437600081840152601f19601f820116905080830192505050505050919291929050505061183e565b005b6108ed600480360360408110156108b757600080fd5b81019080803573ffffffffffffffffffffffffffffffffffffffff16906020019092919080359060200190929190505050611b0c565b604051808215151515815260200191505060405180910390f35b6109736004803603606081101561091d57600080fd5b81019080803573ffffffffffffffffffffffffffffffffffffffff169060200190929190803573ffffffffffffffffffffffffffffffffffffffff16906020019092919080359060200190929190505050611bef565b005b61097d611c10565b604051808273ffffffffffffffffffffffffffffffffffffffff1673ffffffffffffffffffffffffffffffffffffffff16815260200191505060405180910390f35b6109eb600480360360208110156109d557600080fd5b8101908080359060200190929190505050611c39565b6040518082815260200191505060405180910390f35b610b606004803603610140811015610a1857600080fd5b8101908080604001906002806020026040519081016040528092919082600260200280828437600081840152601f19601f82011690508083019250505050505091929192908060800190600280602002604051908101604052809291906000905b82821015610acd578382604002016002806020026040519081016040528092919082600260200280828437600081840152601f19601f82011690508083019250505050505081526020019060010190610a79565b50505050919291929080604001906002806020026040519081016040528092919082600260200280828437600081840152601f19601f820116905080830192505050505050919291929080604001906002806020026040519081016040528092919082600260200280828437600081840152601f19601f8201169050808301925050505050509192919290505050611c71565b604051808215151515815260200191505060405180910390f35b610ba660048036036020811015610b9057600080fd5b8101908080359060200190929190505050611ed6565b604051808273ffffffffffffffffffffffffffffffffffffffff1673ffffffffffffffffffffffffffffffffffffffff16815260200191505060405180910390f35b610c2a60048036036020811015610bfe57600080fd5b81019080803573ffffffffffffffffffffffffffffffffffffffff169060200190929190505050611f13565b6040518082815260200191505060405180910390f35b610c8e60048036036040811015610c5657600080fd5b81019080803573ffffffffffffffffffffffffffffffffffffffff169060200190929190803515159060200190929190505050611f63565b005b610d9360048036036080811015610ca657600080fd5b81019080803573ffffffffffffffffffffffffffffffffffffffff169060200190929190803573ffffffffffffffffffffffffffffffffffffffff1690602001909291908035906020019092919080359060200190640100000000811115610d0d57600080fd5b820183602082011115610d1f57600080fd5b80359060200191846001830284011164010000000083111715610d4157600080fd5b91908080601f016020809104026020016040519081016040528093929190818152602001838380828437600081840152601f19601f82011690508083019250505050505050919291929050505061209f565b005b610d9d6120c7565b6040518080602001828103825283818151815260200191508051906020019080838360005b83811015610ddd578082015181840152602081019050610dc2565b50505050905090810190601f168015610e0a5780820380516001836020036101000a031916815260200191505b509250505060405180910390f35b610e4460048036036020811015610e2e57600080fd5b8101908080359060200190929190505050612169565b6040518080602001828103825283818151815260200191508051906020019080838360005b83811015610e84578082015181840152602081019050610e69565b50505050905090810190601f168015610eb15780820380516001836020036101000a031916815260200191505b509250505060405180910390f35b610f2160048036036040811015610ed557600080fd5b81019080803573ffffffffffffffffffffffffffffffffffffffff169060200190929190803573ffffffffffffffffffffffffffffffffffffffff169060200190929190505050612232565b604051808215151515815260200191505060405180910390f35b610f7d60048036036020811015610f5157600080fd5b81019080803573ffffffffffffffffffffffffffffffffffffffff1690602001909291905050506122c6565b005b6111086004803603610180811015610f9657600080fd5b81019080803573ffffffffffffffffffffffffffffffffffffffff1690602001909291908035906020019092919080604001906002806020026040519081016040528092919082600260200280828437600081840152601f19601f82011690508083019250505050505091929192908060800190600280602002604051908101604052809291906000905b82821015611075578382604002016002806020026040519081016040528092919082600260200280828437600081840152601f19601f82011690508083019250505050505081526020019060010190611021565b50505050919291929080604001906002806020026040519081016040528092919082600260200280828437600081840152601f19601f820116905080830192505050505050919291929080604001906002806020026040519081016040528092919082600260200280828437600081840152601f19601f8201169050808301925050505050509192919290505050612550565b604051808215151515815260200191505060405180910390f35b600060016000837bffffffffffffffffffffffffffffffffffffffffffffffffffffffff19167bffffffffffffffffffffffffffffffffffffffffffffffffffffffff1916815260200190815260200160002060009054906101000a900460ff169050919050565b60006003600083815260200190815260200160002060009054906101000a900473ffffffffffffffffffffffffffffffffffffffff169050919050565b8173ffffffffffffffffffffffffffffffffffffffff166002600083815260200190815260200160002060009054906101000a900473ffffffffffffffffffffffffffffffffffffffff1673ffffffffffffffffffffffffffffffffffffffff1614151515611281576040517f08c379a00000000000000000000000000000000000000000000000000000000081526004018080602001828103825260288152602001806146c16028913960400191505060405180910390fd5b6000809054906101000a900473ffffffffffffffffffffffffffffffffffffffff1673ffffffffffffffffffffffffffffffffffffffff163373ffffffffffffffffffffffffffffffffffffffff16148061130357506113026000809054906101000a900473ffffffffffffffffffffffffffffffffffffffff1633612232565b5b1515611377576040517f08c379a000000000000000000000000000000000000000000000000000000000815260040180806020018281038252600c8152602001807f4e6f7420617070726f766564000000000000000000000000000000000000000081525060200191505060405180910390fd5b816003600083815260200190815260200160002060006101000a81548173ffffffffffffffffffffffffffffffffffffffff021916908373ffffffffffffffffffffffffffffffffffffffff160217905550803373ffffffffffffffffffffffffffffffffffffffff168373ffffffffffffffffffffffffffffffffffffffff167f8c5be1e5ebec7d5bd14f71427d1e84f3dd0314c0f7b2291e5b200ac8c7c3b92560405160405180910390a45050565b606060108054600181600116156101000203166002900480601f0160208091040260200160405190810160405280929190818152602001828054600181600116156101000203166002900480156114c05780601f10611495576101008083540402835291602001916114c0565b820191906000526020600020905b8154815290600101906020018083116114a357829003601f168201915b5050505050905090565b6000809054906101000a900473ffffffffffffffffffffffffffffffffffffffff1673ffffffffffffffffffffffffffffffffffffffff163373ffffffffffffffffffffffffffffffffffffffff1614151561158e576040517f08c379a00000000000000000000000000000000000000000000000000000000081526004018080602001828103825260188152602001807f4f6e6c79206f776e65722063616e2063616c6c2074686973000000000000000081525060200191505060405180910390fd5b80600060146101000a81548160ff02191690831515021790555060011515600060149054906101000a900460ff1615151415611628577f62e78cea01bee320cd4e420270b5ea74000d11b0c9f74754ebdbfc544b05a25833604051808273ffffffffffffffffffffffffffffffffffffffff1673ffffffffffffffffffffffffffffffffffffffff16815260200191505060405180910390a15b60001515600060149054906101000a900460ff16151514156116a8577f5db9ee0a495bf2e6ff9c91a7834c1ba4fdd244a5e8aa4e537bd38aeae4b073aa33604051808273ffffffffffffffffffffffffffffffffffffffff1673ffffffffffffffffffffffffffffffffffffffff16815260200191505060405180910390a15b50565b6060600f8054600181600116156101000203166002900480601f0160208091040260200160405190810160405280929190818152602001828054600181600116156101000203166002900480156117435780601f1061171857610100808354040283529160200191611743565b820191906000526020600020905b81548152906001019060200180831161172657829003601f168201915b5050505050905090565b6000600880549050905090565b6117643382612684565b151561176f57600080fd5b61177a838383612719565b505050565b6117be828260006040519080825280601f01601f1916602001820160405280156117b85781602001600182028038833980820191505090505b50611839565b5050565b60006117cd83611f13565b821015156117da57600080fd5b600660008473ffffffffffffffffffffffffffffffffffffffff1673ffffffffffffffffffffffffffffffffffffffff1681526020019081526020016000208281548110151561182657fe5b9060005260206000200154905092915050565b505050565b6000848484846040516020018085600260200280838360005b83811015611872578082015181840152602081019050611857565b505050509050018460026000925b818410156118c65782846020020151600260200280838360005b838110156118b557808201518184015260208101905061189a565b505050509050019260010192611880565b9250505083600260200280838360005b838110156118f15780820151818401526020810190506118d6565b5050505090500182600260200280838360005b8381101561191f578082015181840152602081019050611904565b505050509050019450505050506040516020818303038152906040528051906020012090506014600082815260200190815260200160002060009054906101000a900460ff161515156119da576040517f08c379a00000000000000000000000000000000000000000000000000000000081526004018080602001828103825260178152602001807f536f6c7574696f6e20616c72656164792065786973747300000000000000000081525060200191505060405180910390fd5b60016014600083815260200190815260200160002060006101000a81548160ff02191690831515021790555060408051908101604052808873ffffffffffffffffffffffffffffffffffffffff168152602001878152506013600088815260200190815260200160002060008201518160000160006101000a81548173ffffffffffffffffffffffffffffffffffffffff021916908373ffffffffffffffffffffffffffffffffffffffff160217905550602082015181600101559050507f078793128cefb19aac38a33f9e5df39f67716907f6d747e8065545699e0b2b8d8688604051808381526020018273ffffffffffffffffffffffffffffffffffffffff1673ffffffffffffffffffffffffffffffffffffffff1681526020019250505060405180910390a150505050505050565b60008060009054906101000a900473ffffffffffffffffffffffffffffffffffffffff1673ffffffffffffffffffffffffffffffffffffffff163373ffffffffffffffffffffffffffffffffffffffff16141515611bd2576040517f08c379a00000000000000000000000000000000000000000000000000000000081526004018080602001828103825260188152602001807f4f6e6c79206f776e65722063616e2063616c6c2074686973000000000000000081525060200191505060405180910390fd5b611bdc838361273d565b611be58261275e565b6001905092915050565b611c0b838383602060405190810160405280600081525061209f565b505050565b60008060009054906101000a900473ffffffffffffffffffffffffffffffffffffffff16905090565b6000611c4361174d565b82101515611c5057600080fd5b600882815481101515611c5f57fe5b90600052602060002001549050919050565b6000611c7b61443e565b6040805190810160405280876000600281101515611c9557fe5b60200201518152602001876001600281101515611cae57fe5b6020020151815250816000018190525060408051908101604052806040805190810160405280886000600281101515611ce357fe5b60200201516000600281101515611cf657fe5b60200201518152602001886000600281101515611d0f57fe5b60200201516001600281101515611d2257fe5b602002015181525081526020016040805190810160405280886001600281101515611d4957fe5b60200201516000600281101515611d5c57fe5b60200201518152602001886001600281101515611d7557fe5b60200201516001600281101515611d8857fe5b602002015181525081525081602001819052506040805190810160405280856000600281101515611db557fe5b60200201518152602001856001600281101515611dce57fe5b6020020151815250816040018190525060606002604051908082528060200260200182016040528015611e105781602001602082028038833980820191505090505b50905060008090505b6002811015611e5e578481600281101515611e3057fe5b60200201518282815181101515611e4357fe5b90602001906020020181815250508080600101915050611e19565b506000611e6b82846128b7565b1415611ec7577f3f3cfdb26fb5f9f1786ab4f1a1f9cd4c0b5e726cbdfc26e495261731aad44e396040518080602001828103825260228152602001806146746022913960400191505060405180910390a1600192505050611ece565b6000925050505b949350505050565b60006002600083815260200190815260200160002060009054906101000a900473ffffffffffffffffffffffffffffffffffffffff169050919050565b6000611f5c600460008473ffffffffffffffffffffffffffffffffffffffff1673ffffffffffffffffffffffffffffffffffffffff1681526020019081526020016000206129f4565b9050919050565b3373ffffffffffffffffffffffffffffffffffffffff168273ffffffffffffffffffffffffffffffffffffffff1614151515611f9e57600080fd5b80600560003373ffffffffffffffffffffffffffffffffffffffff1673ffffffffffffffffffffffffffffffffffffffff16815260200190815260200160002060008473ffffffffffffffffffffffffffffffffffffffff1673ffffffffffffffffffffffffffffffffffffffff16815260200190815260200160002060006101000a81548160ff0219169083151502179055508173ffffffffffffffffffffffffffffffffffffffff163373ffffffffffffffffffffffffffffffffffffffff167f17307eab39ab6107e8899845ad3d59bd9653f200f220920489ca2b5937696c3183604051808215151515815260200191505060405180910390a35050565b6120aa84848461175a565b6120b684848484612a02565b15156120c157600080fd5b50505050565b606060118054600181600116156101000203166002900480601f01602080910402602001604051908101604052809291908181526020018280546001816001161561010002031660029004801561215f5780601f106121345761010080835404028352916020019161215f565b820191906000526020600020905b81548152906001019060200180831161214257829003601f168201915b5050505050905090565b606061217482612c25565b151561217f57600080fd5b601260008381526020019081526020016000208054600181600116156101000203166002900480601f0160208091040260200160405190810160405280929190818152602001828054600181600116156101000203166002900480156122265780601f106121fb57610100808354040283529160200191612226565b820191906000526020600020905b81548152906001019060200180831161220957829003601f168201915b50505050509050919050565b6000600560008473ffffffffffffffffffffffffffffffffffffffff1673ffffffffffffffffffffffffffffffffffffffff16815260200190815260200160002060008373ffffffffffffffffffffffffffffffffffffffff1673ffffffffffffffffffffffffffffffffffffffff16815260200190815260200160002060009054906101000a900460ff16905092915050565b6000809054906101000a900473ffffffffffffffffffffffffffffffffffffffff1673ffffffffffffffffffffffffffffffffffffffff163373ffffffffffffffffffffffffffffffffffffffff1614151561238a576040517f08c379a00000000000000000000000000000000000000000000000000000000081526004018080602001828103825260188152602001807f4f6e6c79206f776e65722063616e2063616c6c2074686973000000000000000081525060200191505060405180910390fd5b6000809054906101000a900473ffffffffffffffffffffffffffffffffffffffff1673ffffffffffffffffffffffffffffffffffffffff168173ffffffffffffffffffffffffffffffffffffffff161415151561244f576040517f08c379a000000000000000000000000000000000000000000000000000000000815260040180806020018281038252600f8152602001807f616c72656164792061206f776e6572000000000000000000000000000000000081525060200191505060405180910390fd5b60008060009054906101000a900473ffffffffffffffffffffffffffffffffffffffff169050816000806101000a81548173ffffffffffffffffffffffffffffffffffffffff021916908373ffffffffffffffffffffffffffffffffffffffff1602179055507f7699c77f2404f9b6bbd003861bb4af8ae70b205e19e73d7ec7fe4590db59a6b78183604051808373ffffffffffffffffffffffffffffffffffffffff1673ffffffffffffffffffffffffffffffffffffffff1681526020018273ffffffffffffffffffffffffffffffffffffffff1673ffffffffffffffffffffffffffffffffffffffff1681526020019250505060405180910390a15050565b6000856013600088815260200190815260200160002060010154141515156125e0576040517f08c379a00000000000000000000000000000000000000000000000000000000081526004018080602001828103825260168152602001807f736f6c7574696f6e20616c72656164792065786973740000000000000000000081525060200191505060405180910390fd5b6125ec85858585611c71565b1515612660576040517f08c379a00000000000000000000000000000000000000000000000000000000081526004018080602001828103825260128152602001807f70726f6f66206973206e6f742076616c6964000000000000000000000000000081525060200191505060405180910390fd5b61266e87878787878761183e565b6126788787611b0c565b90509695505050505050565b60008061269083611ed6565b90508073ffffffffffffffffffffffffffffffffffffffff168473ffffffffffffffffffffffffffffffffffffffff1614806126ff57508373ffffffffffffffffffffffffffffffffffffffff166126e78461118a565b73ffffffffffffffffffffffffffffffffffffffff16145b80612710575061270f8185612232565b5b91505092915050565b612724838383612c97565b61272e8382612f7d565b6127388282613121565b505050565b61274782826131e8565b6127518282613121565b61275a81613364565b5050565b61276781612c25565b15156127db576040517f08c379a00000000000000000000000000000000000000000000000000000000081526004018080602001828103825260168152602001807f546f6b656e20646f6573206e6f74206578697374732e0000000000000000000081525060200191505060405180910390fd5b606061288960118054600181600116156101000203166002900480601f0160208091040260200160405190810160405280929190818152602001828054600181600116156101000203166002900480156128765780601f1061284b57610100808354040283529160200191612876565b820191906000526020600020905b81548152906001019060200180831161285957829003601f168201915b5050505050612884846133b0565b613509565b9050806012600084815260200190815260200160002090805190602001906128b2929190614473565b505050565b60006128c16144f3565b6128c9613550565b905080608001515160018551011415156128e257600080fd5b6128ea61453c565b6040805190810160405280600081526020016000815250905060008090505b85518110156129695761295a8261295585608001516001850181518110151561292e57fe5b90602001906020020151898581518110151561294657fe5b906020019060200201516139a9565b613a45565b91508080600101915050612909565b50612990818360800151600081518110151561298157fe5b90602001906020020151613a45565b90506129d6846000015185602001516129a884613b02565b85604001516129ba8960400151613b02565b87606001516129cc8960000151613b02565b8960200151613b9e565b15156129e7576001925050506129ee565b6000925050505b92915050565b600081600001549050919050565b6000612a238473ffffffffffffffffffffffffffffffffffffffff16613d22565b1515612a325760019050612c1d565b60008473ffffffffffffffffffffffffffffffffffffffff1663150b7a02338887876040518563ffffffff167c0100000000000000000000000000000000000000000000000000000000028152600401808573ffffffffffffffffffffffffffffffffffffffff1673ffffffffffffffffffffffffffffffffffffffff1681526020018473ffffffffffffffffffffffffffffffffffffffff1673ffffffffffffffffffffffffffffffffffffffff16815260200183815260200180602001828103825283818151815260200191508051906020019080838360005b83811015612b29578082015181840152602081019050612b0e565b50505050905090810190601f168015612b565780820380516001836020036101000a031916815260200191505b5095505050505050602060405180830381600087803b158015612b7857600080fd5b505af1158015612b8c573d6000803e3d6000fd5b505050506040513d6020811015612ba257600080fd5b8101908080519060200190929190505050905063150b7a027c0100000000000000000000000000000000000000000000000000000000027bffffffffffffffffffffffffffffffffffffffffffffffffffffffff1916817bffffffffffffffffffffffffffffffffffffffffffffffffffffffff1916149150505b949350505050565b6000806002600084815260200190815260200160002060009054906101000a900473ffffffffffffffffffffffffffffffffffffffff169050600073ffffffffffffffffffffffffffffffffffffffff168173ffffffffffffffffffffffffffffffffffffffff161415915050919050565b6002600082815260200190815260200160002060009054906101000a900473ffffffffffffffffffffffffffffffffffffffff1673ffffffffffffffffffffffffffffffffffffffff168373ffffffffffffffffffffffffffffffffffffffff16141515612d50576040517f08c379a000000000000000000000000000000000000000000000000000000000815260040180806020018281038252602b815260200180614696602b913960400191505060405180910390fd5b60001515612d738373ffffffffffffffffffffffffffffffffffffffff16613d22565b1515141515612dea576040517f08c379a000000000000000000000000000000000000000000000000000000000815260040180806020018281038252600f8152602001807f496e76616c69642061646472657373000000000000000000000000000000000081525060200191505060405180910390fd5b60006003600083815260200190815260200160002060006101000a81548173ffffffffffffffffffffffffffffffffffffffff021916908373ffffffffffffffffffffffffffffffffffffffff160217905550816002600083815260200190815260200160002060006101000a81548173ffffffffffffffffffffffffffffffffffffffff021916908373ffffffffffffffffffffffffffffffffffffffff160217905550612ed6600460008573ffffffffffffffffffffffffffffffffffffffff1673ffffffffffffffffffffffffffffffffffffffff168152602001908152602001600020613d35565b612f1d600460008473ffffffffffffffffffffffffffffffffffffffff1673ffffffffffffffffffffffffffffffffffffffff168152602001908152602001600020613d58565b808273ffffffffffffffffffffffffffffffffffffffff168473ffffffffffffffffffffffffffffffffffffffff167fddf252ad1be2c89b69c2b068fc378daa952ba7f163c4a11628f55a4df523b3ef60405160405180910390a4505050565b6000612fd56001600660008673ffffffffffffffffffffffffffffffffffffffff1673ffffffffffffffffffffffffffffffffffffffff16815260200190815260200160002080549050613d6e90919063ffffffff16565b905060006007600084815260200190815260200160002054905081811415156130c8576000600660008673ffffffffffffffffffffffffffffffffffffffff1673ffffffffffffffffffffffffffffffffffffffff1681526020019081526020016000208381548110151561304657fe5b9060005260206000200154905080600660008773ffffffffffffffffffffffffffffffffffffffff1673ffffffffffffffffffffffffffffffffffffffff168152602001908152602001600020838154811015156130a057fe5b9060005260206000200181905550816007600083815260200190815260200160002081905550505b600660008573ffffffffffffffffffffffffffffffffffffffff1673ffffffffffffffffffffffffffffffffffffffff16815260200190815260200160002080548091906001900361311a9190614556565b5050505050565b600660008373ffffffffffffffffffffffffffffffffffffffff1673ffffffffffffffffffffffffffffffffffffffff168152602001908152602001600020805490506007600083815260200190815260200160002081905550600660008373ffffffffffffffffffffffffffffffffffffffff1673ffffffffffffffffffffffffffffffffffffffff1681526020019081526020016000208190806001815401808255809150509060018203906000526020600020016000909192909190915055505050565b600015156131f582612c25565b151514151561326c576040517f08c379a000000000000000000000000000000000000000000000000000000000815260040180806020018281038252601d8152602001807f476976656e20746f6b656e20496420616c72656164792065786973747300000081525060200191505060405180910390fd5b816002600083815260200190815260200160002060006101000a81548173ffffffffffffffffffffffffffffffffffffffff021916908373ffffffffffffffffffffffffffffffffffffffff160217905550613305600460008473ffffffffffffffffffffffffffffffffffffffff1673ffffffffffffffffffffffffffffffffffffffff168152602001908152602001600020613d58565b808273ffffffffffffffffffffffffffffffffffffffff163373ffffffffffffffffffffffffffffffffffffffff167fddf252ad1be2c89b69c2b068fc378daa952ba7f163c4a11628f55a4df523b3ef60405160405180910390a45050565b6008805490506009600083815260200190815260200160002081905550600881908060018154018082558091505090600182039060005260206000200160009091929091909150555050565b606060008214156133f8576040805190810160405280600181526020017f30000000000000000000000000000000000000000000000000000000000000008152509050613504565b600082905060005b600082141515613426578080600101915050600a8281151561341e57fe5b049150613400565b6060816040519080825280601f01601f19166020018201604052801561345b5781602001600182028038833980820191505090505b50905060006001830390505b6000861415156134fc57600a8681151561347d57fe5b066030017f0100000000000000000000000000000000000000000000000000000000000000028282806001900393508151811015156134b857fe5b9060200101907effffffffffffffffffffffffffffffffffffffffffffffffffffffffffffff1916908160001a905350600a868115156134f457fe5b049550613467565b819450505050505b919050565b60606135488383602060405190810160405280600081525060206040519081016040528060008152506020604051908101604052806000815250613d90565b905092915050565b6135586144f3565b60408051908101604052807f24aa0810422d5724ec9a3b2e156e0475a7d4d968e9bf15326240b170727bc43b81526020017f2f728a8aeb3678b93432349e5dfa3a5f7ee18ecb0b1479b8cd8fe43e241f7a068152508160000181905250604080519081016040528060408051908101604052807f022b59b31b54993b4189a4c42351e0fd199f3492744f3ecf7b7350ee39185f6d81526020017f1f34ab7a13083e070502d0da595b0797b5e4f18e788ea64c12c79309ef4b6ae2815250815260200160408051908101604052807f2e35988673b9400f16fa6de4eef1c7abd4503d573a47cd618bb9a468ba65820581526020017f23ab1200fd63d97cc3b4c111e89faf0ab9c74530f63fdbf051ec81439d8491ad8152508152508160200181905250604080519081016040528060408051908101604052807f2b403e701d6d429fe554bc83638c436146372fe4748b7bf408b05c579f1c2e5c81526020017f28cc59ddfa04dc9ff6d7268edf6db03500b1ff4e1c68de591acf2d2eb366eefd815250815260200160408051908101604052807f1ce7ea4b7b3fa99f6536c97b003bb9b4c817644aacfa0ad9dbc293303f4157f281526020017f23cc33570ad5eaf13bb6feb5b46bcb1f8d14f314380a512e0e792c7b1f9e55e08152508152508160400181905250604080519081016040528060408051908101604052807f2d0270f0d136c5d98c0db8bd25b67ec7d1496fdb07e54ef53b86b9b5ad0d29f281526020017f2c34b57d43163ae92663a6ea95705b9709a693c821cdad94fa9e9c86e128f563815250815260200160408051908101604052807f165e6a0ffdb2c73caeb0d7fb50a253707f77f5b3a391dd0e01a0e2d73a448d2981526020017f1dd305c86093784bc49658062e885f19ef0e00760cf7de253afeeb512337b9d38152508152508160600181905250600360405190808252806020026020018201604052801561383f57816020015b61382c614582565b8152602001906001900390816138245790505b50816080018190525060408051908101604052807f27bd8b6a24dea1eba32ca042db813f17e82d3bc830e8c0826dc014a5e62191b781526020017e98c7d4d3f244e8c8b3464a2936781edc3bbef88320d8850794e9168bb4ddb7815250816080015160008151811015156138af57fe5b9060200190602002018190525060408051908101604052807f150741360bc2337513dfe1fe1fd4c8dccac6f947c817a0e761af006b582dafe081526020017f24e025d33da3448557498cf82a74baa392e109bb615d0efa31f1a71d8a1271fa8152508160800151600181518110151561392457fe5b9060200190602002018190525060408051908101604052807f090fe4057815e95e2e44d2f8778dc96afcf30e0423132ae3f5d188df39e3615481526020017f0530ecf7f92301eeeb09dc0b468b6b14d87c74e575a48b8a19acda0c5014116a8152508160800151600281518110151561399957fe5b9060200190602002018190525090565b6139b161453c565b6139b961459c565b83600001518160006003811015156139cd57fe5b60200201818152505083602001518160016003811015156139ea57fe5b60200201818152505082816002600381101515613a0357fe5b6020020181815250506000606083608084600060076107d05a03f190508060008114613a2e57613a30565bfe5b50801515613a3d57600080fd5b505092915050565b613a4d61453c565b613a556145bf565b8360000151816000600481101515613a6957fe5b6020020181815250508360200151816001600481101515613a8657fe5b6020020181815250508260000151816002600481101515613aa357fe5b6020020181815250508260200151816003600481101515613ac057fe5b602002018181525050600060608360c084600060066107d05a03f190508060008114613aeb57613aed565bfe5b50801515613afa57600080fd5b505092915050565b613b0a61453c565b60007f30644e72e131a029b85045b68181585d97816a916871ca8d3c208c16d87cfd47905060008360000151148015613b47575060008360200151145b15613b6b576040805190810160405280600081526020016000815250915050613b99565b604080519081016040528084600001518152602001828560200151811515613b8f57fe5b0683038152509150505b919050565b600060606004604051908082528060200260200182016040528015613bdd57816020015b613bca614582565b815260200190600190039081613bc25790505b50905060606004604051908082528060200260200182016040528015613c1d57816020015b613c0a6145e2565b815260200190600190039081613c025790505b5090508a826000815181101515613c3057fe5b9060200190602002018190525088826001815181101515613c4d57fe5b9060200190602002018190525086826002815181101515613c6a57fe5b9060200190602002018190525084826003815181101515613c8757fe5b9060200190602002018190525089816000815181101515613ca457fe5b9060200190602002018190525087816001815181101515613cc157fe5b9060200190602002018190525085816002815181101515613cde57fe5b9060200190602002018190525083816003815181101515613cfb57fe5b90602001906020020181905250613d1282826141ab565b9250505098975050505050505050565b600080823b905060008111915050919050565b613d4d60018260000154613d6e90919063ffffffff16565b816000018190555050565b6001816000016000828254019250508190555050565b6000828211151515613d7f57600080fd5b600082840390508091505092915050565b6060808690506060869050606086905060608690506060869050606081518351855187518951010101016040519080825280601f01601f191660200182016040528015613dec5781602001600182028038833980820191505090505b509050606081905060008090506000809050600090505b8851811015613eb6578881815181101515613e1a57fe5b9060200101517f010000000000000000000000000000000000000000000000000000000000000090047f0100000000000000000000000000000000000000000000000000000000000000028383806001019450815181101515613e7957fe5b9060200101907effffffffffffffffffffffffffffffffffffffffffffffffffffffffffffff1916908160001a9053508080600101915050613e03565b600090505b8751811015613f6e578781815181101515613ed257fe5b9060200101517f010000000000000000000000000000000000000000000000000000000000000090047f0100000000000000000000000000000000000000000000000000000000000000028383806001019450815181101515613f3157fe5b9060200101907effffffffffffffffffffffffffffffffffffffffffffffffffffffffffffff1916908160001a9053508080600101915050613ebb565b600090505b8651811015614026578681815181101515613f8a57fe5b9060200101517f010000000000000000000000000000000000000000000000000000000000000090047f0100000000000000000000000000000000000000000000000000000000000000028383806001019450815181101515613fe957fe5b9060200101907effffffffffffffffffffffffffffffffffffffffffffffffffffffffffffff1916908160001a9053508080600101915050613f73565b600090505b85518110156140de57858181518110151561404257fe5b9060200101517f010000000000000000000000000000000000000000000000000000000000000090047f01000000000000000000000000000000000000000000000000000000000000000283838060010194508151811015156140a157fe5b9060200101907effffffffffffffffffffffffffffffffffffffffffffffffffffffffffffff1916908160001a905350808060010191505061402b565b600090505b84518110156141965784818151811015156140fa57fe5b9060200101517f010000000000000000000000000000000000000000000000000000000000000090047f010000000000000000000000000000000000000000000000000000000000000002838380600101945081518110151561415957fe5b9060200101907effffffffffffffffffffffffffffffffffffffffffffffffffffffffffffff1916908160001a90535080806001019150506140e3565b82995050505050505050505095945050505050565b6000815183511415156141bd57600080fd5b60008351905060006006820290506060816040519080825280602002602001820160405280156141fc5781602001602082028038833980820191505090505b50905060008090505b838110156143da57868181518110151561421b57fe5b9060200190602002015160000151826000600684020181518110151561423d57fe5b9060200190602002018181525050868181518110151561425957fe5b9060200190602002015160200151826001600684020181518110151561427b57fe5b9060200190602002018181525050858181518110151561429757fe5b906020019060200201516000015160006002811015156142b357fe5b602002015182600260068402018151811015156142cc57fe5b906020019060200201818152505085818151811015156142e857fe5b9060200190602002015160000151600160028110151561430457fe5b6020020151826003600684020181518110151561431d57fe5b9060200190602002018181525050858181518110151561433957fe5b9060200190602002015160200151600060028110151561435557fe5b6020020151826004600684020181518110151561436e57fe5b9060200190602002018181525050858181518110151561438a57fe5b906020019060200201516020015160016002811015156143a657fe5b602002015182600560068402018151811015156143bf57fe5b90602001906020020181815250508080600101915050614205565b506143e3614609565b60006020826020860260208601600060086107d05a03f19050806000811461440a5761440c565bfe5b5080151561441957600080fd5b600082600060018110151561442a57fe5b602002015114159550505050505092915050565b61010060405190810160405280614453614582565b81526020016144606145e2565b815260200161446d614582565b81525090565b828054600181600116156101000203166002900490600052602060002090601f016020900481019282601f106144b457805160ff19168380011785556144e2565b828001600101855582156144e2579182015b828111156144e15782518255916020019190600101906144c6565b5b5090506144ef919061462c565b5090565b6101e060405190810160405280614508614582565b81526020016145156145e2565b81526020016145226145e2565b815260200161452f6145e2565b8152602001606081525090565b604080519081016040528060008152602001600081525090565b81548183558181111561457d5781836000526020600020918201910161457c919061462c565b5b505050565b604080519081016040528060008152602001600081525090565b606060405190810160405280600390602082028038833980820191505090505090565b608060405190810160405280600490602082028038833980820191505090505090565b6080604051908101604052806145f6614651565b8152602001614603614651565b81525090565b602060405190810160405280600190602082028038833980820191505090505090565b61464e91905b8082111561464a576000816000905550600101614632565b5090565b90565b604080519081016040528060029060208202803883398082019150509050509056fe5472616e73616374696f6e207375636365737366756c6c792076657269666965642e66726f6d2061646472657373206973206e6f7420746865206f776e6572206f66207468697320746f6b656e43616c6c657220697320616c726561647920616e206f776e6572206f66207468697320746f6b656ea165627a7a7230582096b81e082538c969ad7009fef78044d152ef29ce671a8f28cbad19fa709dc88a002968747470733a2f2f73332d75732d776573742d322e616d617a6f6e6177732e636f6d2f756461636974792d626c6f636b636861696e2f63617073746f6e652f",
  "source": "pragma solidity >=0.4.21 <0.6.0;\n\n// TODO define a contract call to the zokrates generated solidity contract <Verifier> or <renamedVerifier>\nimport \"./ERC721Mintable.sol\";\nimport \"./verifier.sol\";\n\n// TODO define another contract named SolnSquareVerifier that inherits from your ERC721Mintable class\ncontract SolnSquareVerifier is Verifier, CustomizedTokenERC721{\n\n    // TODO define a solutions struct that can hold an index & an address\n    struct Solution {\n        address addr;\n        uint256 index;\n    }\n\n    // TODO define an array of the above struct (tokenId => Solution)\n    mapping(uint256 => Solution) solutions;\n\n    // TODO define a mapping to store unique solutions submitted\n    mapping(bytes32 => bool) uniqueSolutions;\n\n\n    // TODO Create an event to emit when a solution is added\n    event SolutionAdded(uint256 index, address addr);\n\n    // TODO Create a function to add the solutions to the array and emit the event\n    function addSolution(address _addr, uint256 _index, uint[2] memory a, uint[2][2] memory b, uint[2] memory c, uint[2] memory input) public{\n        bytes32 _key = keccak256(abi.encodePacked(a, b, c, input));\n        require(!uniqueSolutions[_key], \"Solution already exists\");\n        uniqueSolutions[_key] = true;\n        solutions[_index] = Solution({\n            index: _index,\n            addr: _addr\n        });\n\n        emit SolutionAdded(_index, _addr);\n    }\n\n    // TODO Create a function to mint new NFT only after the solution has been verified\n    //  - make sure the solution is unique (has not been used before)\n    //  - make sure you handle metadata as well as tokenSuplly\n    function mint(address to, uint256 tokenId, uint[2] memory a, uint[2][2] memory b, uint[2] memory c, uint[2] memory input)\n    public returns(bool) {\n        require(solutions[tokenId].index != tokenId,\"solution already exist\");\n        require(verifyTx(a, b, c, input), \"proof is not valid\");\n        addSolution(to, tokenId, a, b, c, input);\n        return super.mint(to, tokenId);\n    }\n} \n",
  "sourcePath": "c:\\UdacityCourse-Blockchain\\Projects\\BlockchainNanodegreeUdacity\\CapstoneProject\\eth-contracts\\contracts\\SolnSquareVerifier.sol",
  "compiler": {
    "name": "solc",
    "version": "0.5.2+commit.1df8f40c.Emscripten.clang"
  },
  "schemaVersion": "3.4.6",
  "updatedAt": "2022-04-09T11:46:44.053Z",
  "networkType": "ethereum",
  "devdoc": {
    "methods": {
      "isApprovedForAll(address,address)": {
        "details": "Tells whether an operator is approved by a given owner",
        "params": {
          "operator": "operator address which you want to query the approval of",
          "owner": "owner address which you want to query the approval of"
        },
        "return": "bool whether the given operator is approved by the given owner"
      },
      "setApprovalForAll(address,bool)": {
        "details": "Sets or unsets the approval of a given operator An operator is allowed to transfer all tokens of the sender on their behalf",
        "params": {
          "approved": "representing the status of the approval to be set",
          "to": "operator address to set the approval"
        }
      },
      "supportsInterface(bytes4)": {
        "details": "implement supportsInterface(bytes4) using a lookup table"
      },
      "tokenByIndex(uint256)": {
        "details": "Gets the token ID at a given index of all the tokens in this contract Reverts if the index is greater or equal to the total number of tokens",
        "params": {
          "index": "uint256 representing the index to be accessed of the tokens list"
        },
        "return": "uint256 token ID at the given index of the tokens list"
      },
      "tokenOfOwnerByIndex(address,uint256)": {
        "details": "Gets the token ID at a given index of the tokens list of the requested owner",
        "params": {
          "index": "uint256 representing the index to be accessed of the requested tokens list",
          "owner": "address owning the tokens list to be accessed"
        },
        "return": "uint256 token ID at the given index of the tokens list owned by the requested address"
      },
      "totalSupply()": {
        "details": "Gets the total amount of tokens stored by the contract",
        "return": "uint256 representing the total amount of tokens"
      }
    }
  },
  "userdoc": {
    "methods": {}
  }
}