{
  "contractName": "FlightSuretyData",
  "abi": [
    {
      "inputs": [
        {
          "name": "firstAirline",
          "type": "address"
        }
      ],
      "payable": false,
      "stateMutability": "nonpayable",
      "type": "constructor"
    },
    {
      "payable": true,
      "stateMutability": "payable",
      "type": "fallback"
    },
    {
      "constant": true,
      "inputs": [],
      "name": "isOperational",
      "outputs": [
        {
          "name": "",
          "type": "bool"
        }
      ],
      "payable": false,
      "stateMutability": "view",
      "type": "function"
    },
    {
      "constant": false,
      "inputs": [
        {
          "name": "mode",
          "type": "bool"
        }
      ],
      "name": "setOperatingStatus",
      "outputs": [],
      "payable": false,
      "stateMutability": "nonpayable",
      "type": "function"
    },
    {
      "constant": true,
      "inputs": [
        {
          "name": "airline",
          "type": "address"
        }
      ],
      "name": "isAirlineRegistered",
      "outputs": [
        {
          "name": "",
          "type": "bool"
        }
      ],
      "payable": false,
      "stateMutability": "view",
      "type": "function"
    },
    {
      "constant": true,
      "inputs": [
        {
          "name": "airline",
          "type": "address"
        }
      ],
      "name": "isAirlineFunded",
      "outputs": [
        {
          "name": "",
          "type": "bool"
        }
      ],
      "payable": false,
      "stateMutability": "view",
      "type": "function"
    },
    {
      "constant": true,
      "inputs": [
        {
          "name": "flightKey",
          "type": "bytes32"
        }
      ],
      "name": "isFlightRegistered",
      "outputs": [
        {
          "name": "",
          "type": "bool"
        }
      ],
      "payable": false,
      "stateMutability": "view",
      "type": "function"
    },
    {
      "constant": true,
      "inputs": [
        {
          "name": "airline",
          "type": "address"
        }
      ],
      "name": "getAirline",
      "outputs": [
        {
          "name": "isRegistered",
          "type": "bool"
        },
        {
          "name": "isFundReceived",
          "type": "bool"
        },
        {
          "name": "name",
          "type": "string"
        }
      ],
      "payable": false,
      "stateMutability": "view",
      "type": "function"
    },
    {
      "constant": false,
      "inputs": [
        {
          "name": "contractAddress",
          "type": "address"
        }
      ],
      "name": "authorizeContract",
      "outputs": [],
      "payable": false,
      "stateMutability": "nonpayable",
      "type": "function"
    },
    {
      "constant": false,
      "inputs": [
        {
          "name": "contractAddress",
          "type": "address"
        }
      ],
      "name": "deauthorizeContract",
      "outputs": [],
      "payable": false,
      "stateMutability": "nonpayable",
      "type": "function"
    },
    {
      "constant": true,
      "inputs": [
        {
          "name": "airline",
          "type": "address"
        }
      ],
      "name": "getAirlinesResponses",
      "outputs": [
        {
          "name": "",
          "type": "address[]"
        }
      ],
      "payable": false,
      "stateMutability": "view",
      "type": "function"
    },
    {
      "constant": true,
      "inputs": [
        {
          "name": "i",
          "type": "uint256"
        }
      ],
      "name": "getFlightAtIndex",
      "outputs": [
        {
          "name": "num",
          "type": "string"
        },
        {
          "name": "from",
          "type": "string"
        },
        {
          "name": "to",
          "type": "string"
        },
        {
          "name": "airline",
          "type": "address"
        }
      ],
      "payable": false,
      "stateMutability": "view",
      "type": "function"
    },
    {
      "constant": true,
      "inputs": [],
      "name": "getTotalAirlines",
      "outputs": [
        {
          "name": "",
          "type": "uint256"
        }
      ],
      "payable": false,
      "stateMutability": "view",
      "type": "function"
    },
    {
      "constant": true,
      "inputs": [],
      "name": "getTotalFlights",
      "outputs": [
        {
          "name": "",
          "type": "uint256"
        }
      ],
      "payable": false,
      "stateMutability": "view",
      "type": "function"
    },
    {
      "constant": false,
      "inputs": [
        {
          "name": "airline",
          "type": "address"
        }
      ],
      "name": "setAirlineAsRegistered",
      "outputs": [],
      "payable": false,
      "stateMutability": "nonpayable",
      "type": "function"
    },
    {
      "constant": false,
      "inputs": [
        {
          "name": "airlineToRegister",
          "type": "address"
        },
        {
          "name": "airlineName",
          "type": "string"
        },
        {
          "name": "callingAirline",
          "type": "address"
        }
      ],
      "name": "registerAirline",
      "outputs": [
        {
          "name": "",
          "type": "uint256"
        }
      ],
      "payable": false,
      "stateMutability": "nonpayable",
      "type": "function"
    },
    {
      "constant": false,
      "inputs": [
        {
          "name": "flightNum",
          "type": "string"
        },
        {
          "name": "whereFrom",
          "type": "string"
        },
        {
          "name": "whereTo",
          "type": "string"
        },
        {
          "name": "airline",
          "type": "address"
        }
      ],
      "name": "registerFlight",
      "outputs": [
        {
          "name": "",
          "type": "bytes32"
        }
      ],
      "payable": false,
      "stateMutability": "nonpayable",
      "type": "function"
    },
    {
      "constant": false,
      "inputs": [
        {
          "name": "airline",
          "type": "address"
        },
        {
          "name": "flight",
          "type": "string"
        },
        {
          "name": "timestamp",
          "type": "uint256"
        },
        {
          "name": "statusCode",
          "type": "uint8"
        }
      ],
      "name": "processFlightStatus",
      "outputs": [],
      "payable": false,
      "stateMutability": "nonpayable",
      "type": "function"
    },
    {
      "constant": false,
      "inputs": [
        {
          "name": "flightNum",
          "type": "string"
        },
        {
          "name": "airline",
          "type": "address"
        }
      ],
      "name": "buy",
      "outputs": [],
      "payable": true,
      "stateMutability": "payable",
      "type": "function"
    },
    {
      "constant": false,
      "inputs": [
        {
          "name": "flightKey",
          "type": "bytes32"
        }
      ],
      "name": "creditInsurees",
      "outputs": [],
      "payable": false,
      "stateMutability": "nonpayable",
      "type": "function"
    },
    {
      "constant": false,
      "inputs": [
        {
          "name": "passenger",
          "type": "address"
        }
      ],
      "name": "pay",
      "outputs": [
        {
          "name": "",
          "type": "uint256"
        }
      ],
      "payable": false,
      "stateMutability": "nonpayable",
      "type": "function"
    },
    {
      "constant": true,
      "inputs": [],
      "name": "getClaimAmount",
      "outputs": [
        {
          "name": "",
          "type": "uint256"
        }
      ],
      "payable": false,
      "stateMutability": "view",
      "type": "function"
    },
    {
      "constant": false,
      "inputs": [],
      "name": "fund",
      "outputs": [],
      "payable": true,
      "stateMutability": "payable",
      "type": "function"
    },
    {
      "constant": true,
      "inputs": [
        {
          "name": "a",
          "type": "string"
        },
        {
          "name": "b",
          "type": "string"
        }
      ],
      "name": "compareStrings",
      "outputs": [
        {
          "name": "",
          "type": "bool"
        }
      ],
      "payable": false,
      "stateMutability": "view",
      "type": "function"
    }
  ],
  "bytecode": "0x60806040526001600060146101000a81548160ff021916908315150217905550678ac7230489e80000600155670de0b6b3a764000060025560006003553480156200004957600080fd5b506040516020806200338d83398101806040528101908080519060200190929190505050336000806101000a81548173ffffffffffffffffffffffffffffffffffffffff021916908373ffffffffffffffffffffffffffffffffffffffff1602179055506080604051908101604052806001151581526020016000604051908082528060200260200182016040528015620000f35781602001602082028038833980820191505090505b5081526020016040805190810160405280600b81526020017f4a65742041697277617973000000000000000000000000000000000000000000815250815260200160001515815250600660008373ffffffffffffffffffffffffffffffffffffffff1673ffffffffffffffffffffffffffffffffffffffff16815260200190815260200160002060008201518160000160006101000a81548160ff0219169083151502179055506020820151816001019080519060200190620001b892919062000270565b506040820151816002019080519060200190620001d7929190620002ff565b5060608201518160030160006101000a81548160ff02191690831515021790555090505060016003819055506001600760008060009054906101000a900473ffffffffffffffffffffffffffffffffffffffff1673ffffffffffffffffffffffffffffffffffffffff1673ffffffffffffffffffffffffffffffffffffffff1681526020019081526020016000208190555050620003f4565b828054828255906000526020600020908101928215620002ec579160200282015b82811115620002eb5782518260006101000a81548173ffffffffffffffffffffffffffffffffffffffff021916908373ffffffffffffffffffffffffffffffffffffffff1602179055509160200191906001019062000291565b5b509050620002fb919062000386565b5090565b828054600181600116156101000203166002900490600052602060002090601f016020900481019282601f106200034257805160ff191683800117855562000373565b8280016001018555821562000373579182015b828111156200037257825182559160200191906001019062000355565b5b509050620003829190620003cc565b5090565b620003c991905b80821115620003c557600081816101000a81549073ffffffffffffffffffffffffffffffffffffffff0219169055506001016200038d565b5090565b90565b620003f191905b80821115620003ed576000816000905550600101620003d3565b5090565b90565b612f8980620004046000396000f300608060405260043610610128576000357c0100000000000000000000000000000000000000000000000000000000900463ffffffff168063010c5c971461012a5780630c11dedd14610185578063110466ed146101dc5780632747b6fc1461020b5780633b31eeae146103bc57806358ac36a3146103e757806367561d93146104305780636e861c0e1461047357806371127ed2146104b6578063721b3cb5146104e15780637c0dec1014610579578063aff19e6214610608578063b60d4288146106af578063bed34bba146106b9578063bf5abe9c14610780578063cc2f6eba146107c3578063cd905dff146107f4578063d53a57b514610823578063e1a3e55c1461084e578063e1de04891461089c578063e7bdde3b1461096e578063f53b6d65146109e0575b005b34801561013657600080fd5b5061016b600480360381019080803573ffffffffffffffffffffffffffffffffffffffff169060200190929190505050610a3b565b604051808215151515815260200191505060405180910390f35b34801561019157600080fd5b506101c6600480360381019080803573ffffffffffffffffffffffffffffffffffffffff169060200190929190505050610a94565b6040518082815260200191505060405180910390f35b3480156101e857600080fd5b50610209600480360381019080803515159060200190929190505050610cbc565b005b34801561021757600080fd5b5061023660048036038101908080359060200190929190505050610d9d565b604051808060200180602001806020018573ffffffffffffffffffffffffffffffffffffffff1673ffffffffffffffffffffffffffffffffffffffff168152602001848103845288818151815260200191508051906020019080838360005b838110156102b0578082015181840152602081019050610295565b50505050905090810190601f1680156102dd5780820380516001836020036101000a031916815260200191505b50848103835287818151815260200191508051906020019080838360005b838110156103165780820151818401526020810190506102fb565b50505050905090810190601f1680156103435780820380516001836020036101000a031916815260200191505b50848103825286818151815260200191508051906020019080838360005b8381101561037c578082015181840152602081019050610361565b50505050905090810190601f1680156103a95780820380516001836020036101000a031916815260200191505b5097505050505050505060405180910390f35b3480156103c857600080fd5b506103d161104f565b6040518082815260200191505060405180910390f35b3480156103f357600080fd5b50610416600480360381019080803560001916906020019092919050505061105c565b604051808215151515815260200191505060405180910390f35b34801561043c57600080fd5b50610471600480360381019080803573ffffffffffffffffffffffffffffffffffffffff169060200190929190505050611103565b005b34801561047f57600080fd5b506104b4600480360381019080803573ffffffffffffffffffffffffffffffffffffffff16906020019092919050505061120f565b005b3480156104c257600080fd5b506104cb611319565b6040518082815260200191505060405180910390f35b3480156104ed57600080fd5b50610522600480360381019080803573ffffffffffffffffffffffffffffffffffffffff169060200190929190505050611365565b6040518080602001828103825283818151815260200191508051906020019060200280838360005b8381101561056557808201518184015260208101905061054a565b505050509050019250505060405180910390f35b34801561058557600080fd5b506105f2600480360381019080803573ffffffffffffffffffffffffffffffffffffffff169060200190929190803590602001908201803590602001919091929391929390803573ffffffffffffffffffffffffffffffffffffffff1690602001909291905050506114ec565b6040518082815260200191505060405180910390f35b34801561061457600080fd5b50610691600480360381019080803590602001908201803590602001919091929391929390803590602001908201803590602001919091929391929390803590602001908201803590602001919091929391929390803573ffffffffffffffffffffffffffffffffffffffff169060200190929190505050611784565b60405180826000191660001916815260200191505060405180910390f35b6106b76119ba565b005b3480156106c557600080fd5b50610766600480360381019080803590602001908201803590602001908080601f0160208091040260200160405190810160405280939291908181526020018383808284378201915050505050509192919290803590602001908201803590602001908080601f0160208091040260200160405190810160405280939291908181526020018383808284378201915050505050509192919290505050611cbc565b604051808215151515815260200191505060405180910390f35b34801561078c57600080fd5b506107c1600480360381019080803573ffffffffffffffffffffffffffffffffffffffff169060200190929190505050611e6d565b005b3480156107cf57600080fd5b506107f26004803603810190808035600019169060200190929190505050611f91565b005b34801561080057600080fd5b50610809612151565b604051808215151515815260200191505060405180910390f35b34801561082f57600080fd5b50610838612167565b6040518082815260200191505060405180910390f35b61089a600480360381019080803590602001908201803590602001919091929391929390803573ffffffffffffffffffffffffffffffffffffffff16906020019092919050505061221a565b005b3480156108a857600080fd5b506108dd600480360381019080803573ffffffffffffffffffffffffffffffffffffffff169060200190929190505050612701565b60405180841515151581526020018315151515815260200180602001828103825283818151815260200191508051906020019080838360005b83811015610931578082015181840152602081019050610916565b50505050905090810190601f16801561095e5780820380516001836020036101000a031916815260200191505b5094505050505060405180910390f35b34801561097a57600080fd5b506109de600480360381019080803573ffffffffffffffffffffffffffffffffffffffff16906020019092919080359060200190820180359060200191909192939192939080359060200190929190803560ff169060200190929190505050612897565b005b3480156109ec57600080fd5b50610a21600480360381019080803573ffffffffffffffffffffffffffffffffffffffff169060200190929190505050612a25565b604051808215151515815260200191505060405180910390f35b6000600660008373ffffffffffffffffffffffffffffffffffffffff1673ffffffffffffffffffffffffffffffffffffffff16815260200190815260200160002060000160009054906101000a900460ff169050919050565b600080600960008473ffffffffffffffffffffffffffffffffffffffff1673ffffffffffffffffffffffffffffffffffffffff168152602001908152602001600020549050803073ffffffffffffffffffffffffffffffffffffffff163110151515610b68576040517f08c379a00000000000000000000000000000000000000000000000000000000081526004018080602001828103825260128152602001807f4e6f2066756e647320617661696c61626c65000000000000000000000000000081525060200191505060405180910390fd5b600081111515610c06576040517f08c379a000000000000000000000000000000000000000000000000000000000815260040180806020018281038252602b8152602001807f546865726520617265206e6f2066756e647320617661696c61626c6520666f7281526020017f207769746864726177616c00000000000000000000000000000000000000000081525060400191505060405180910390fd5b6000600960008573ffffffffffffffffffffffffffffffffffffffff1673ffffffffffffffffffffffffffffffffffffffff168152602001908152602001600020819055506000809054906101000a900473ffffffffffffffffffffffffffffffffffffffff1673ffffffffffffffffffffffffffffffffffffffff166108fc829081150290604051600060405180830381858888f19350505050158015610cb2573d6000803e3d6000fd5b5080915050919050565b6000809054906101000a900473ffffffffffffffffffffffffffffffffffffffff1673ffffffffffffffffffffffffffffffffffffffff163373ffffffffffffffffffffffffffffffffffffffff16141515610d80576040517f08c379a000000000000000000000000000000000000000000000000000000000815260040180806020018281038252601c8152602001807f43616c6c6572206973206e6f7420636f6e7472616374206f776e65720000000081525060200191505060405180910390fd5b80600060146101000a81548160ff02191690831515021790555050565b606080606060008085600580549050111561103b57600586815481101515610dc157fe5b906000526020600020015490506004600082600019166000191681526020019081526020016000206000018054600181600116156101000203166002900480601f016020809104026020016040519081016040528092919081815260200182805460018160011615610100020316600290048015610e805780601f10610e5557610100808354040283529160200191610e80565b820191906000526020600020905b815481529060010190602001808311610e6357829003601f168201915b505050505094506004600082600019166000191681526020019081526020016000206001018054600181600116156101000203166002900480601f016020809104026020016040519081016040528092919081815260200182805460018160011615610100020316600290048015610f395780601f10610f0e57610100808354040283529160200191610f39565b820191906000526020600020905b815481529060010190602001808311610f1c57829003601f168201915b505050505093506004600082600019166000191681526020019081526020016000206002018054600181600116156101000203166002900480601f016020809104026020016040519081016040528092919081815260200182805460018160011615610100020316600290048015610ff25780601f10610fc757610100808354040283529160200191610ff2565b820191906000526020600020905b815481529060010190602001808311610fd557829003601f168201915b5050505050925060046000826000191660001916815260200190815260200160002060030160009054906101000a900473ffffffffffffffffffffffffffffffffffffffff1691505b848484849450945094509450509193509193565b6000600580549050905090565b600060046000836000191660001916815260200190815260200160002060030160149054906101000a900460ff1615156110fe576040517f08c379a00000000000000000000000000000000000000000000000000000000081526004018080602001828103825260188152602001807f666c69676874206973206e6f742072656769737465726564000000000000000081525060200191505060405180910390fd5b919050565b6000809054906101000a900473ffffffffffffffffffffffffffffffffffffffff1673ffffffffffffffffffffffffffffffffffffffff163373ffffffffffffffffffffffffffffffffffffffff161415156111c7576040517f08c379a000000000000000000000000000000000000000000000000000000000815260040180806020018281038252601c8152602001807f43616c6c6572206973206e6f7420636f6e7472616374206f776e65720000000081525060200191505060405180910390fd5b6001600760008373ffffffffffffffffffffffffffffffffffffffff1673ffffffffffffffffffffffffffffffffffffffff1681526020019081526020016000208190555050565b6000809054906101000a900473ffffffffffffffffffffffffffffffffffffffff1673ffffffffffffffffffffffffffffffffffffffff163373ffffffffffffffffffffffffffffffffffffffff161415156112d3576040517f08c379a000000000000000000000000000000000000000000000000000000000815260040180806020018281038252601c8152602001807f43616c6c6572206973206e6f7420636f6e7472616374206f776e65720000000081525060200191505060405180910390fd5b600760008273ffffffffffffffffffffffffffffffffffffffff1673ffffffffffffffffffffffffffffffffffffffff1681526020019081526020016000206000905550565b600080600960003373ffffffffffffffffffffffffffffffffffffffff1673ffffffffffffffffffffffffffffffffffffffff1681526020019081526020016000205490508091505090565b60606001600760003373ffffffffffffffffffffffffffffffffffffffff1673ffffffffffffffffffffffffffffffffffffffff1681526020019081526020016000205414151561141e576040517f08c379a000000000000000000000000000000000000000000000000000000000815260040180806020018281038252601c8152602001807f43616c6c6572206973206e6f7420636f6e7472616374206f776e65720000000081525060200191505060405180910390fd5b600660008373ffffffffffffffffffffffffffffffffffffffff1673ffffffffffffffffffffffffffffffffffffffff1681526020019081526020016000206001018054806020026020016040519081016040528092919081815260200182805480156114e057602002820191906000526020600020905b8160009054906101000a900473ffffffffffffffffffffffffffffffffffffffff1673ffffffffffffffffffffffffffffffffffffffff1681526020019060010190808311611496575b50505050509050919050565b600080600660008773ffffffffffffffffffffffffffffffffffffffff1673ffffffffffffffffffffffffffffffffffffffff1681526020019081526020016000206001019050808390806001815401808255809150509060018203906000526020600020016000909192909190916101000a81548173ffffffffffffffffffffffffffffffffffffffff021916908373ffffffffffffffffffffffffffffffffffffffff160217905550506080604051908101604052806000151581526020018280548060200260200160405190810160405280929190818152602001828054801561162e57602002820191906000526020600020905b8160009054906101000a900473ffffffffffffffffffffffffffffffffffffffff1673ffffffffffffffffffffffffffffffffffffffff16815260200190600101908083116115e4575b5050505050815260200186868080601f016020809104026020016040519081016040528093929190818152602001838380828437820191505050505050815260200160001515815250600660008873ffffffffffffffffffffffffffffffffffffffff1673ffffffffffffffffffffffffffffffffffffffff16815260200190815260200160002060008201518160000160006101000a81548160ff02191690831515021790555060208201518160010190805190602001906116f2929190612c05565b50604082015181600201908051906020019061170f929190612c8f565b5060608201518160030160006101000a81548160ff021916908315150217905550905050600660008773ffffffffffffffffffffffffffffffffffffffff1673ffffffffffffffffffffffffffffffffffffffff16815260200190815260200160002060010180549050915050949350505050565b6000806117c4838a8a8080601f01602080910402602001604051908101604052809392919081815260200183838082843782019150505050505042612a7e565b905060a0604051908101604052808a8a8080601f016020809104026020016040519081016040528093929190818152602001838380828437820191505050505050815260200188888080601f016020809104026020016040519081016040528093929190818152602001838380828437820191505050505050815260200186868080601f01602080910402602001604051908101604052809392919081815260200183838082843782019150505050505081526020018473ffffffffffffffffffffffffffffffffffffffff1681526020016001151581525060046000836000191660001916815260200190815260200160002060008201518160000190805190602001906118d4929190612c8f565b5060208201518160010190805190602001906118f1929190612c8f565b50604082015181600201908051906020019061190e929190612c8f565b5060608201518160030160006101000a81548173ffffffffffffffffffffffffffffffffffffffff021916908373ffffffffffffffffffffffffffffffffffffffff16021790555060808201518160030160146101000a81548160ff021916908315150217905550905050600581908060018154018082558091505090600182039060005260206000200160009091929091909150906000191690555080915050979650505050505050565b60011515600660003373ffffffffffffffffffffffffffffffffffffffff1673ffffffffffffffffffffffffffffffffffffffff16815260200190815260200160002060000160009054906101000a900460ff161515141515611aab576040517f08c379a000000000000000000000000000000000000000000000000000000000815260040180806020018281038252602b8152602001807f4169726c696e652073686f756c6420626520726567697374657265642062656681526020017f6f72652066756e64696e6700000000000000000000000000000000000000000081525060400191505060405180910390fd5b60001515600660003373ffffffffffffffffffffffffffffffffffffffff1673ffffffffffffffffffffffffffffffffffffffff16815260200190815260200160002060030160009054906101000a900460ff161515141515611b76576040517f08c379a00000000000000000000000000000000000000000000000000000000081526004018080602001828103825260198152602001807f4169726c696e6520697320616c72656164792066756e6465640000000000000081525060200191505060405180910390fd5b6001543410151515611c16576040517f08c379a00000000000000000000000000000000000000000000000000000000081526004018080602001828103825260218152602001807f4d696e696d756d2066756e64207265717569726564206973203130204574686581526020017f720000000000000000000000000000000000000000000000000000000000000081525060400191505060405180910390fd5b6001600660003373ffffffffffffffffffffffffffffffffffffffff1673ffffffffffffffffffffffffffffffffffffffff16815260200190815260200160002060030160006101000a81548160ff0219169083151502179055503373ffffffffffffffffffffffffffffffffffffffff166108fc6001549081150290604051600060405180830381858888f19350505050158015611cb9573d6000803e3d6000fd5b50565b6000816040516020018082805190602001908083835b602083101515611cf75780518252602082019150602081019050602083039250611cd2565b6001836020036101000a0380198251168184511680821785525050505050509050019150506040516020818303038152906040526040518082805190602001908083835b602083101515611d605780518252602082019150602081019050602083039250611d3b565b6001836020036101000a038019825116818451168082178552505050505050905001915050604051809103902060001916836040516020018082805190602001908083835b602083101515611dca5780518252602082019150602081019050602083039250611da5565b6001836020036101000a0380198251168184511680821785525050505050509050019150506040516020818303038152906040526040518082805190602001908083835b602083101515611e335780518252602082019150602081019050602083039250611e0e565b6001836020036101000a03801982511681845116808217855250505050505090500191505060405180910390206000191614905092915050565b600060149054906101000a900460ff161515611f17576040517f08c379a00000000000000000000000000000000000000000000000000000000081526004018080602001828103825260258152602001807f436f6e74726163742069732063757272656e746c79206e6f74206f706572617481526020017f696f6e616c00000000000000000000000000000000000000000000000000000081525060400191505060405180910390fd5b6001600660008373ffffffffffffffffffffffffffffffffffffffff1673ffffffffffffffffffffffffffffffffffffffff16815260200190815260200160002060000160006101000a81548160ff021916908315150217905550611f886001600354612b9b90919063ffffffff16565b60038190555050565b60008060008092505b6008600085600019166000191681526020019081526020016000208054905083101561214b5760086000856000191660001916815260200190815260200160002083815481101515611fe857fe5b90600052602060002090600402019150600015158260030160009054906101000a900460ff16151514156120345760018260030160006101000a81548160ff0219169083151502179055505b61205f600261205160038560020154612bb790919063ffffffff16565b612bef90919063ffffffff16565b90506120d781600960008560010160009054906101000a900473ffffffffffffffffffffffffffffffffffffffff1673ffffffffffffffffffffffffffffffffffffffff1673ffffffffffffffffffffffffffffffffffffffff16815260200190815260200160002054612b9b90919063ffffffff16565b600960008460010160009054906101000a900473ffffffffffffffffffffffffffffffffffffffff1673ffffffffffffffffffffffffffffffffffffffff1673ffffffffffffffffffffffffffffffffffffffff168152602001908152602001600020819055508280600101935050611f9a565b50505050565b60008060149054906101000a900460ff16905090565b60008060149054906101000a900460ff161515612212576040517f08c379a00000000000000000000000000000000000000000000000000000000081526004018080602001828103825260258152602001807f436f6e74726163742069732063757272656e746c79206e6f74206f706572617481526020017f696f6e616c00000000000000000000000000000000000000000000000000000081525060400191505060405180910390fd5b600354905090565b6000806000806000600254341115151561229c576040517f08c379a00000000000000000000000000000000000000000000000000000000081526004018080602001828103825260208152602001807f4d6178207075726368617365207265717569726564206973203120457468657281525060200191505060405180910390fd5b600660008773ffffffffffffffffffffffffffffffffffffffff1673ffffffffffffffffffffffffffffffffffffffff16815260200190815260200160002060000160009054906101000a900460ff161515612360576040517f08c379a000000000000000000000000000000000000000000000000000000000815260040180806020018281038252601c8152602001807f4169726c696e652073686f756c6420626520726567697374657265640000000081525060200191505060405180910390fd5b60009450600092505b6005805490508310156124b8576124816004600060058681548110151561238c57fe5b9060005260206000200154600019166000191681526020019081526020016000206000018054600181600116156101000203166002900480601f0160208091040260200160405190810160405280929190818152602001828054600181600116156101000203166002900480156124445780601f1061241957610100808354040283529160200191612444565b820191906000526020600020905b81548152906001019060200180831161242757829003601f168201915b505050505089898080601f016020809104026020016040519081016040528093929190818152602001838380828437820191505050505050611cbc565b156124ab576001945060058381548110151561249957fe5b906000526020600020015493506124b8565b8280600101935050612369565b84151561252d576040517f08c379a000000000000000000000000000000000000000000000000000000000815260040180806020018281038252600e8152602001807f496e76616c696420666c6967687400000000000000000000000000000000000081525060200191505060405180910390fd5b3391506008600085600019166000191681526020019081526020016000209050806080604051908101604052808873ffffffffffffffffffffffffffffffffffffffff1681526020018473ffffffffffffffffffffffffffffffffffffffff168152602001348152602001600015158152509080600181540180825580915050906001820390600052602060002090600402016000909192909190915060008201518160000160006101000a81548173ffffffffffffffffffffffffffffffffffffffff021916908373ffffffffffffffffffffffffffffffffffffffff16021790555060208201518160010160006101000a81548173ffffffffffffffffffffffffffffffffffffffff021916908373ffffffffffffffffffffffffffffffffffffffff1602179055506040820151816002015560608201518160030160006101000a81548160ff021916908315150217905550505050806008600086600019166000191681526020019081526020016000209080546126af929190612d0f565b508173ffffffffffffffffffffffffffffffffffffffff166108fc349081150290604051600060405180830381858888f193505050501580156126f6573d6000803e3d6000fd5b505050505050505050565b6000806060600660008573ffffffffffffffffffffffffffffffffffffffff1673ffffffffffffffffffffffffffffffffffffffff16815260200190815260200160002060000160009054906101000a900460ff169250600660008573ffffffffffffffffffffffffffffffffffffffff1673ffffffffffffffffffffffffffffffffffffffff16815260200190815260200160002060030160009054906101000a900460ff169150600660008573ffffffffffffffffffffffffffffffffffffffff1673ffffffffffffffffffffffffffffffffffffffff1681526020019081526020016000206002018054600181600116156101000203166002900480601f0160208091040260200160405190810160405280929190818152602001828054600181600116156101000203166002900480156128805780601f1061285557610100808354040283529160200191612880565b820191906000526020600020905b81548152906001019060200180831161286357829003601f168201915b505050505090508282829250925092509193909250565b60008060149054906101000a900460ff161515612942576040517f08c379a00000000000000000000000000000000000000000000000000000000081526004018080602001828103825260258152602001807f436f6e74726163742069732063757272656e746c79206e6f74206f706572617481526020017f696f6e616c00000000000000000000000000000000000000000000000000000081525060400191505060405180910390fd5b61297f8686868080601f01602080910402602001604051908101604052809392919081815260200183838082843782019150505050505085612a7e565b905060148260ff161415612a1d573073ffffffffffffffffffffffffffffffffffffffff1663cc2f6eba826040518263ffffffff167c0100000000000000000000000000000000000000000000000000000000028152600401808260001916600019168152602001915050600060405180830381600087803b158015612a0457600080fd5b505af1158015612a18573d6000803e3d6000fd5b505050505b505050505050565b6000600660008373ffffffffffffffffffffffffffffffffffffffff1673ffffffffffffffffffffffffffffffffffffffff16815260200190815260200160002060030160009054906101000a900460ff169050919050565b60008383604051602001808373ffffffffffffffffffffffffffffffffffffffff1673ffffffffffffffffffffffffffffffffffffffff166c0100000000000000000000000002815260140182805190602001908083835b602083101515612afb5780518252602082019150602081019050602083039250612ad6565b6001836020036101000a038019825116818451168082178552505050505050905001925050506040516020818303038152906040526040518082805190602001908083835b602083101515612b655780518252602082019150602081019050602083039250612b40565b6001836020036101000a038019825116818451168082178552505050505050905001915050604051809103902090509392505050565b60008183019050828110151515612bae57fe5b80905092915050565b600080831415612bca5760009050612be9565b8183029050818382811515612bdb57fe5b04141515612be557fe5b8090505b92915050565b60008183811515612bfc57fe5b04905092915050565b828054828255906000526020600020908101928215612c7e579160200282015b82811115612c7d5782518260006101000a81548173ffffffffffffffffffffffffffffffffffffffff021916908373ffffffffffffffffffffffffffffffffffffffff16021790555091602001919060010190612c25565b5b509050612c8b9190612e6c565b5090565b828054600181600116156101000203166002900490600052602060002090601f016020900481019282601f10612cd057805160ff1916838001178555612cfe565b82800160010185558215612cfe579182015b82811115612cfd578251825591602001919060010190612ce2565b5b509050612d0b9190612eaf565b5090565b828054828255906000526020600020906004028101928215612e5b5760005260206000209160040282015b82811115612e5a5782826000820160009054906101000a900473ffffffffffffffffffffffffffffffffffffffff168160000160006101000a81548173ffffffffffffffffffffffffffffffffffffffff021916908373ffffffffffffffffffffffffffffffffffffffff1602179055506001820160009054906101000a900473ffffffffffffffffffffffffffffffffffffffff168160010160006101000a81548173ffffffffffffffffffffffffffffffffffffffff021916908373ffffffffffffffffffffffffffffffffffffffff160217905550600282015481600201556003820160009054906101000a900460ff168160030160006101000a81548160ff021916908315150217905550505091600401919060040190612d3a565b5b509050612e689190612ed4565b5090565b612eac91905b80821115612ea857600081816101000a81549073ffffffffffffffffffffffffffffffffffffffff021916905550600101612e72565b5090565b90565b612ed191905b80821115612ecd576000816000905550600101612eb5565b5090565b90565b612f5a91905b80821115612f5657600080820160006101000a81549073ffffffffffffffffffffffffffffffffffffffff02191690556001820160006101000a81549073ffffffffffffffffffffffffffffffffffffffff021916905560028201600090556003820160006101000a81549060ff021916905550600401612eda565b5090565b905600a165627a7a723058200f03b407500f6a7639e083edc29ccc722d6e97d91b92c78ae7a6f0b05818addf0029",
  "source": "pragma solidity ^0.4.25;\n\nimport \"../node_modules/openzeppelin-solidity/contracts/math/SafeMath.sol\";\n\ncontract FlightSuretyData {\n    using SafeMath for uint256;\n\n    /********************************************************************************************/\n    /*                                       DATA VARIABLES                                     */\n    /********************************************************************************************/\n\n    address private contractOwner;                                      // Account used to deploy contract\n    bool private operational = true;                                    // Blocks all state changes throughout the contract if false\n\n    uint256 minimumFundAirlines = 10 ether; \n    uint256 maximumPurchase = 1 ether;\n    uint256 totalAirlines = 0;\n\n    struct Flight {\n        string num;\n        string from;\n        string to;\n        address airline;\n        bool isRegistered;\n    }\n    mapping(bytes32 => Flight) private flights;\n    bytes32[] registeredFlights;\n\n    struct Airline {\n        bool isRegistered;\n        address[] responses;\n        string name;\n        bool isFundReceived;\n    }\n    mapping(address => Airline) private airlines;\n\n    mapping(address => uint256) private authorizedContracts;\n\n    struct Insurance {\n        address airline;\n        address passenger;\n        uint256 amount;\n        bool claimed;\n    }\n    mapping(bytes32 => Insurance[]) private insurances;\n\n    mapping(address => uint256) private fundsToPay;\n\n    /********************************************************************************************/\n    /*                                       EVENT DEFINITIONS                                  */\n    /********************************************************************************************/\n\n\n    /**\n    * @dev Constructor\n    *      The deploying account becomes contractOwner\n    */\n    constructor\n                                (\n                                    address firstAirline\n                                ) \n                                public \n    {\n        contractOwner = msg.sender;\n        airlines[firstAirline] = Airline({\n                                        isRegistered: true,\n                                        isFundReceived: false,\n                                        name: 'Jet Airways',\n                                        responses: new address[](0)\n                                });\n        \n        totalAirlines = 1;\n        authorizedContracts[contractOwner] = 1;\n    }\n\n    /********************************************************************************************/\n    /*                                       FUNCTION MODIFIERS                                 */\n    /********************************************************************************************/\n\n    // Modifiers help avoid duplication of code. They are typically used to validate something\n    // before a function is allowed to be executed.\n\n    /**\n    * @dev Modifier that requires the \"operational\" boolean variable to be \"true\"\n    *      This is used on all state changing functions to pause the contract in \n    *      the event there is an issue that needs to be fixed\n    */\n    modifier requireIsOperational() \n    {\n        require(operational, \"Contract is currently not operational\");\n        _;  // All modifiers require an \"_\" which indicates where the function body will be added\n    }\n\n    /**\n    * @dev Modifier that requires the \"ContractOwner\" account to be the function caller\n    */\n    modifier requireContractOwner()\n    {\n        require(msg.sender == contractOwner, \"Caller is not contract owner\");\n        _;\n    }\n\n    modifier requireIsCallerAuthorized()\n    {\n        require(authorizedContracts[msg.sender] == 1, \"Caller is not contract owner\");\n        _;\n    }\n\n    /********************************************************************************************/\n    /*                                       UTILITY FUNCTIONS                                  */\n    /********************************************************************************************/\n\n    /**\n    * @dev Get operating status of contract\n    *\n    * @return A bool that is the current operating status\n    */      \n    function isOperational() \n                            public \n                            view \n                            returns(bool) \n    {\n        return operational;\n    }\n\n\n    /**\n    * @dev Sets contract operations on/off\n    *\n    * When operational mode is disabled, all write transactions except for this one will fail\n    */    \n    function setOperatingStatus\n                            (\n                                bool mode\n                            ) \n                            external\n                            requireContractOwner \n    {\n        operational = mode;\n    }\n\n    function isAirlineRegistered(address airline) external view returns(bool){\n        return(airlines[airline].isRegistered);\n    }\n\n    function isAirlineFunded(address airline) external view returns(bool){\n        return(airlines[airline].isFundReceived);\n    }\n\n    function isFlightRegistered(bytes32 flightKey) external view returns(bool){\n        require(flights[flightKey].isRegistered, \"flight is not registered\");\n    }\n\n    function getAirline(address airline) \n                        external view \n                        returns(bool isRegistered,\n                        bool isFundReceived,\n                        string name){\n\n        isRegistered = airlines[airline].isRegistered;\n        isFundReceived = airlines[airline].isFundReceived;\n        name = airlines[airline].name;\n\n        return(isRegistered, isFundReceived, name);\n    }\n\n    function authorizeContract\n                            (\n                                address contractAddress\n                            )\n                            external\n                            requireContractOwner\n    {\n        authorizedContracts[contractAddress] = 1;\n    }\n\n    function deauthorizeContract\n                            (\n                                address contractAddress\n                            )\n                            external\n                            requireContractOwner\n    {\n        delete authorizedContracts[contractAddress];\n    }\n\n    /********************************************************************************************/\n    /*                                     SMART CONTRACT FUNCTIONS                             */\n    /********************************************************************************************/\n    function getAirlinesResponses(address airline) external  view requireIsCallerAuthorized returns(address[]) {\n        return airlines[airline].responses;\n    }\n\n    function getFlightAtIndex(uint256 i) external view returns(string num, string from, string to, address airline){\n\n        if(registeredFlights.length > i) {\n            bytes32 key = registeredFlights[i];\n            \n            num = flights[key].num;\n            from = flights[key].from;\n            to = flights[key].to;\n            airline = flights[key].airline;\n        }\n        return(num, from, to, airline);\n    }\n\n    function getTotalAirlines()  external  view requireIsOperational returns(uint256){\n        return totalAirlines;\n    }\n\n    function getTotalFlights() external view returns(uint256) {\n        return registeredFlights.length;\n    }\n\n    function setAirlineAsRegistered(address airline)  external  requireIsOperational {\n        airlines[airline].isRegistered = true;\n        totalAirlines = totalAirlines.add(1);\n    }\n\n   /**\n    * @dev Add an airline to the registration queue\n    *      Can only be called from FlightSuretyApp contract\n    *\n    */   \n    function registerAirline\n                            (\n                                address airlineToRegister,\n                                string airlineName,\n                                address callingAirline\n                            )\n                            external\n                            returns(uint256)\n    {\n        address[] prevResponses = airlines[airlineToRegister].responses;\n        prevResponses.push(callingAirline);\n        airlines[airlineToRegister] = Airline({\n                                isRegistered: false,\n                                isFundReceived: false,\n                                name: airlineName,\n                                responses: prevResponses\n                        });\n        return airlines[airlineToRegister].responses.length;\n    }\n\n    function registerFlight\n                            (\n                                string flightNum,\n                                string whereFrom,\n                                string whereTo,\n                                address airline\n                            )\n                            external\n                            returns(bytes32)\n    {\n        bytes32 flightKey = getFlightKey(airline, flightNum, now);\n        flights[flightKey] = Flight({\n            num: flightNum,\n            airline: airline,\n            from: whereFrom,\n            to: whereTo,\n            isRegistered: true\n        });\n        registeredFlights.push(flightKey);\n        return flightKey;\n    }\n\n    function processFlightStatus(address airline, string flight, uint256 timestamp, uint8 statusCode) \n                    external \n                    requireIsOperational \n    {\n        bytes32 flightKey = getFlightKey(airline, flight, timestamp);\n        if (statusCode == 20) {\n            this.creditInsurees(flightKey);\n        }\n    }\n\n   /**\n    * @dev Buy insurance for a flight\n    *\n    */   \n    function buy\n                            (  \n                                string flightNum,\n                                address airline                         \n                            )\n                            external\n                            payable\n    {\n        require(msg.value <= maximumPurchase, \"Max purchase required is 1 Ether\");        \n        require(airlines[airline].isRegistered , \"Airline should be registered\");\n\n        // check flight validity\n        bool flightValid = false;\n        bytes32 flightKey;\n        for(uint256 i = 0; i< registeredFlights.length; i++){\n            if(compareStrings(flights[registeredFlights[i]].num, flightNum)) {\n                flightValid = true;\n                flightKey = registeredFlights[i];\n                break;\n            }\n        }\n        require(flightValid, \"Invalid flight\");\n\n        address passenger = msg.sender;\n        \n        // transfer\n        Insurance[] prevInsurances = insurances[flightKey];\n        prevInsurances.push(Insurance({\n            airline: airline,\n            amount: msg.value,\n            passenger: passenger,\n            claimed: false\n        }));\n        insurances[flightKey] = prevInsurances;\n        passenger.transfer(msg.value);\n    }\n\n    /**\n     *  @dev Credits payouts to insurees\n    */\n    function creditInsurees\n                                (\n                                    bytes32 flightKey\n                                )\n                                external\n    {\n          for (uint256 i = 0; i < insurances[flightKey].length; i++) {\n            Insurance claim = insurances[flightKey][i];\n            if(claim.claimed == false){\n                claim.claimed = true;\n            }\n            uint256 amount = claim.amount.mul(3).div(2);\n            fundsToPay[claim.passenger] = fundsToPay[claim.passenger].add(amount);\n        }\n    }\n    \n\n    /**\n     *  @dev Transfers eligible payout funds to insuree\n     *\n    */\n    function pay\n                            (\n                                address passenger\n                            )\n                            external\n                            returns(uint256)\n    {\n        uint256 amount = fundsToPay[passenger];\n        require(address(this).balance >= amount, \"No funds available\");\n        require(amount > 0, \"There are no funds available for withdrawal\");\n        fundsToPay[passenger] = 0;\n        contractOwner.transfer(amount);\n        return(amount);\n    }\n\n    function getClaimAmount\n                            (\n                            )\n                            external\n                            view\n                            returns(uint256)\n    {\n        uint256 amount = fundsToPay[msg.sender];\n        return(amount);\n    }\n\n   /**\n    * @dev Initial funding for the insurance. Unless there are too many delayed flights\n    *      resulting in insurance payouts, the contract should be self-sustaining\n    *\n    */   \n    function fund\n                            (  \n                            )\n                            external\n                            payable\n    {\n        require(airlines[msg.sender].isRegistered == true, \"Airline should be registered before funding\");\n        require(airlines[msg.sender].isFundReceived == false, \"Airline is already funded\");\n        require(msg.value >= minimumFundAirlines, \"Minimum fund required is 10 Ether\");\n\n        airlines[msg.sender].isFundReceived = true;\n        msg.sender.transfer(minimumFundAirlines);\n    }\n\n    function getFlightKey\n                        (\n                            address airline,\n                            string memory flight,\n                            uint256 timestamp\n                        )\n                        pure\n                        internal\n                        returns(bytes32) \n    {\n        return keccak256(abi.encodePacked(airline, flight));\n    }\n\n    function compareStrings(string memory a, string memory b) public view returns (bool) {\n        return (keccak256(abi.encodePacked((a))) == keccak256(abi.encodePacked((b))));\n    }\n    /**\n    * @dev Fallback function for funding smart contract.\n    *\n    */\n    function() \n                            external \n                            payable \n    {\n        //fund();\n    }\n\n\n}\n\n",
  "sourcePath": "c:\\UdacityCourse-Blockchain\\Projects\\BlockchainNanodegreeUdacity\\FlightSurety\\contracts\\FlightSuretyData.sol",
  "compiler": {
    "name": "solc",
    "version": "0.4.25+commit.59dbf8f1.Emscripten.clang"
  },
  "schemaVersion": "3.4.5",
  "updatedAt": "2022-04-05T14:32:34.915Z",
  "networkType": "ethereum",
  "devdoc": {
    "methods": {
      "buy(string,address)": {
        "details": "Buy insurance for a flight    "
      },
      "creditInsurees(bytes32)": {
        "details": "Credits payouts to insurees"
      },
      "fund()": {
        "details": "Initial funding for the insurance. Unless there are too many delayed flights     resulting in insurance payouts, the contract should be self-sustaining    "
      },
      "isOperational()": {
        "details": "Get operating status of contract",
        "return": "A bool that is the current operating status"
      },
      "pay(address)": {
        "details": "Transfers eligible payout funds to insuree    "
      },
      "registerAirline(address,string,address)": {
        "details": "Add an airline to the registration queue     Can only be called from FlightSuretyApp contract    "
      },
      "setOperatingStatus(bool)": {
        "details": "Sets contract operations on/off    * When operational mode is disabled, all write transactions except for this one will fail"
      }
    }
  },
  "userdoc": {
    "methods": {
      "getAirlinesResponses(address)": {
        "notice": "*****************************************************************************************"
      }
    }
  }
}